{
  "_format": "hh-sol-artifact-1",
  "contractName": "Hero",
  "sourceName": "contracts/Hero.sol",
  "abi": [
    {
      "inputs": [
        {
          "internalType": "enum Hero.Class",
          "name": "class",
          "type": "uint8"
        }
      ],
      "name": "createHero",
      "outputs": [],
      "stateMutability": "payable",
      "type": "function"
    },
    {
      "inputs": [],
      "name": "generateRandom",
      "outputs": [
        {
          "internalType": "uint256",
          "name": "",
          "type": "uint256"
        }
      ],
      "stateMutability": "view",
      "type": "function"
    },
    {
      "inputs": [
        {
          "internalType": "uint32",
          "name": "hero",
          "type": "uint32"
        }
      ],
      "name": "getDexterity",
      "outputs": [
        {
          "internalType": "uint32",
          "name": "",
          "type": "uint32"
        }
      ],
      "stateMutability": "pure",
      "type": "function"
    },
    {
      "inputs": [
        {
          "internalType": "uint32",
          "name": "hero",
          "type": "uint32"
        }
      ],
      "name": "getHealth",
      "outputs": [
        {
          "internalType": "uint32",
          "name": "",
          "type": "uint32"
        }
      ],
      "stateMutability": "pure",
      "type": "function"
    },
    {
      "inputs": [],
      "name": "getHeroes",
      "outputs": [
        {
          "internalType": "uint256[]",
          "name": "",
          "type": "uint256[]"
        }
      ],
      "stateMutability": "view",
      "type": "function"
    },
    {
      "inputs": [
        {
          "internalType": "uint32",
          "name": "hero",
          "type": "uint32"
        }
      ],
      "name": "getIntellect",
      "outputs": [
        {
          "internalType": "uint32",
          "name": "",
          "type": "uint32"
        }
      ],
      "stateMutability": "pure",
      "type": "function"
    },
    {
      "inputs": [
        {
          "internalType": "uint32",
          "name": "hero",
          "type": "uint32"
        }
      ],
      "name": "getMagic",
      "outputs": [
        {
          "internalType": "uint32",
          "name": "",
          "type": "uint32"
        }
      ],
      "stateMutability": "pure",
      "type": "function"
    },
    {
      "inputs": [
        {
          "internalType": "uint32",
          "name": "hero",
          "type": "uint32"
        }
      ],
      "name": "getStrength",
      "outputs": [
        {
          "internalType": "uint32",
          "name": "",
          "type": "uint32"
        }
      ],
      "stateMutability": "pure",
      "type": "function"
    }
  ],
  "bytecode": "0x608060405234801561001057600080fd5b50610a7c806100206000396000f3fe60806040526004361061007b5760003560e01c8063acc0fd111161004e578063acc0fd111461012f578063b2dd76311461016c578063d5389e0e146101a9578063fe7498b8146101e65761007b565b806302e4af01146100805780635e7e236d146100ab5780636b32e34f146100c75780639a8d288214610104575b600080fd5b34801561008c57600080fd5b50610095610223565b6040516100a291906105fb565b60405180910390f35b6100c560048036038101906100c09190610640565b610256565b005b3480156100d357600080fd5b506100ee60048036038101906100e991906106a9565b6104db565b6040516100fb91906106e5565b60405180910390f35b34801561011057600080fd5b506101196104f2565b60405161012691906107be565b60405180910390f35b34801561013b57600080fd5b50610156600480360381019061015191906106a9565b610586565b60405161016391906106e5565b60405180910390f35b34801561017857600080fd5b50610193600480360381019061018e91906106a9565b61059d565b6040516101a091906106e5565b60405180910390f35b3480156101b557600080fd5b506101d060048036038101906101cb91906106a9565b6105b4565b6040516101dd91906106e5565b60405180910390f35b3480156101f257600080fd5b5061020d600480360381019061020891906106a9565b6105cb565b60405161021a91906106e5565b60405180910390f35b60004442604051602001610238929190610801565b6040516020818303038152906040528051906020012060001c905090565b66b1a2bc2ec500003410156102a0576040517f08c379a00000000000000000000000000000000000000000000000000000000081526004016102979061088a565b60405180910390fd5b6000600567ffffffffffffffff8111156102bd576102bc6108aa565b5b6040519080825280602002602001820160405280156102eb5781602001602082028036833780820191505090505b509050600281600081518110610304576103036108d9565b5b602002602001018181525050600781600181518110610326576103256108d9565b5b602002602001018181525050600c81600281518110610348576103476108d9565b5b60200260200101818152505060118160038151811061036a576103696108d9565b5b60200260200101818152505060168160048151811061038c5761038b6108d9565b5b60200260200101818152505060006005905060008360028111156103b3576103b2610908565b5b90505b6000826103c1610223565b6103cb9190610966565b90506000600184600d6103de91906109c6565b6103e6610223565b6103f09190610966565b6103fa91906109c6565b905084828151811061040f5761040e6108d9565b5b602002602001015181901b83179250838061042990610a1c565b94505084848151811061043f5761043e6108d9565b5b602002602001015185838151811061045a576104596108d9565b5b6020026020010181815250505050600082116103b6576000803373ffffffffffffffffffffffffffffffffffffffff1673ffffffffffffffffffffffffffffffffffffffff16815260200190815260200160002081908060018154018082558091505060019003906000526020600020016000909190919091505550505050565b6000601f60118363ffffffff16901c169050919050565b60606000803373ffffffffffffffffffffffffffffffffffffffff1673ffffffffffffffffffffffffffffffffffffffff16815260200190815260200160002080548060200260200160405190810160405280929190818152602001828054801561057c57602002820191906000526020600020905b815481526020019060010190808311610568575b5050505050905090565b6000601f60028363ffffffff16901c169050919050565b6000601f600c8363ffffffff16901c169050919050565b6000601f60078363ffffffff16901c169050919050565b6000601f60168363ffffffff16901c169050919050565b6000819050919050565b6105f5816105e2565b82525050565b600060208201905061061060008301846105ec565b92915050565b600080fd5b6003811061062857600080fd5b50565b60008135905061063a8161061b565b92915050565b60006020828403121561065657610655610616565b5b60006106648482850161062b565b91505092915050565b600063ffffffff82169050919050565b6106868161066d565b811461069157600080fd5b50565b6000813590506106a38161067d565b92915050565b6000602082840312156106bf576106be610616565b5b60006106cd84828501610694565b91505092915050565b6106df8161066d565b82525050565b60006020820190506106fa60008301846106d6565b92915050565b600081519050919050565b600082825260208201905092915050565b6000819050602082019050919050565b610735816105e2565b82525050565b6000610747838361072c565b60208301905092915050565b6000602082019050919050565b600061076b82610700565b610775818561070b565b93506107808361071c565b8060005b838110156107b1578151610798888261073b565b97506107a383610753565b925050600181019050610784565b5085935050505092915050565b600060208201905081810360008301526107d88184610760565b905092915050565b6000819050919050565b6107fb6107f6826105e2565b6107e0565b82525050565b600061080d82856107ea565b60208201915061081d82846107ea565b6020820191508190509392505050565b600082825260208201905092915050565b7f506c656173652073656e64206d6f7265206d6f6e6579203a2900000000000000600082015250565b600061087460198361082d565b915061087f8261083e565b602082019050919050565b600060208201905081810360008301526108a381610867565b9050919050565b7f4e487b7100000000000000000000000000000000000000000000000000000000600052604160045260246000fd5b7f4e487b7100000000000000000000000000000000000000000000000000000000600052603260045260246000fd5b7f4e487b7100000000000000000000000000000000000000000000000000000000600052602160045260246000fd5b7f4e487b7100000000000000000000000000000000000000000000000000000000600052601260045260246000fd5b6000610971826105e2565b915061097c836105e2565b92508261098c5761098b610937565b5b828206905092915050565b7f4e487b7100000000000000000000000000000000000000000000000000000000600052601160045260246000fd5b60006109d1826105e2565b91506109dc836105e2565b9250827fffffffffffffffffffffffffffffffffffffffffffffffffffffffffffffffff03821115610a1157610a10610997565b5b828201905092915050565b6000610a27826105e2565b91506000821415610a3b57610a3a610997565b5b60018203905091905056fea2646970667358221220d2b6264ef067c68175583541a3a4e6c7449c74e7c166e345aed7e9428f2a8b6f64736f6c634300080a0033",
  "linkReferences": {},
  "deployedLinkReferences": {}
}