{
  "_format": "hh-sol-artifact-1",
  "contractName": "TestHero",
  "sourceName": "contracts/TestHero.sol",
  "abi": [
    {
      "inputs": [
        {
          "internalType": "enum Hero.Class",
          "name": "class",
          "type": "uint8"
        }
      ],
      "name": "createHero",
      "outputs": [],
      "stateMutability": "payable",
      "type": "function"
    },
    {
      "inputs": [],
      "name": "generateRandom",
      "outputs": [
        {
          "internalType": "uint256",
          "name": "",
          "type": "uint256"
        }
      ],
      "stateMutability": "view",
      "type": "function"
    },
    {
      "inputs": [
        {
          "internalType": "uint32",
          "name": "hero",
          "type": "uint32"
        }
      ],
      "name": "getDexterity",
      "outputs": [
        {
          "internalType": "uint32",
          "name": "",
          "type": "uint32"
        }
      ],
      "stateMutability": "pure",
      "type": "function"
    },
    {
      "inputs": [
        {
          "internalType": "uint32",
          "name": "hero",
          "type": "uint32"
        }
      ],
      "name": "getHealth",
      "outputs": [
        {
          "internalType": "uint32",
          "name": "",
          "type": "uint32"
        }
      ],
      "stateMutability": "pure",
      "type": "function"
    },
    {
      "inputs": [],
      "name": "getHeroes",
      "outputs": [
        {
          "internalType": "uint256[]",
          "name": "",
          "type": "uint256[]"
        }
      ],
      "stateMutability": "view",
      "type": "function"
    },
    {
      "inputs": [
        {
          "internalType": "uint32",
          "name": "hero",
          "type": "uint32"
        }
      ],
      "name": "getIntellect",
      "outputs": [
        {
          "internalType": "uint32",
          "name": "",
          "type": "uint32"
        }
      ],
      "stateMutability": "pure",
      "type": "function"
    },
    {
      "inputs": [
        {
          "internalType": "uint32",
          "name": "hero",
          "type": "uint32"
        }
      ],
      "name": "getMagic",
      "outputs": [
        {
          "internalType": "uint32",
          "name": "",
          "type": "uint32"
        }
      ],
      "stateMutability": "pure",
      "type": "function"
    },
    {
      "inputs": [
        {
          "internalType": "uint32",
          "name": "hero",
          "type": "uint32"
        }
      ],
      "name": "getStrength",
      "outputs": [
        {
          "internalType": "uint32",
          "name": "",
          "type": "uint32"
        }
      ],
      "stateMutability": "pure",
      "type": "function"
    },
    {
      "inputs": [
        {
          "internalType": "uint256",
          "name": "r",
          "type": "uint256"
        }
      ],
      "name": "setRandom",
      "outputs": [],
      "stateMutability": "nonpayable",
      "type": "function"
    }
  ],
  "bytecode": "0x608060405234801561001057600080fd5b50610a9d806100206000396000f3fe6080604052600436106100865760003560e01c80639a8d2882116100595780639a8d288214610138578063acc0fd1114610163578063b2dd7631146101a0578063d5389e0e146101dd578063fe7498b81461021a57610086565b806302e4af011461008b5780635e7e236d146100b65780636b32e34f146100d2578063729e7cf61461010f575b600080fd5b34801561009757600080fd5b506100a0610257565b6040516100ad9190610610565b60405180910390f35b6100d060048036038101906100cb9190610655565b610261565b005b3480156100de57600080fd5b506100f960048036038101906100f491906106be565b6104e6565b60405161010691906106fa565b60405180910390f35b34801561011b57600080fd5b5061013660048036038101906101319190610741565b6104fd565b005b34801561014457600080fd5b5061014d610507565b60405161015a919061082c565b60405180910390f35b34801561016f57600080fd5b5061018a600480360381019061018591906106be565b61059b565b60405161019791906106fa565b60405180910390f35b3480156101ac57600080fd5b506101c760048036038101906101c291906106be565b6105b2565b6040516101d491906106fa565b60405180910390f35b3480156101e957600080fd5b5061020460048036038101906101ff91906106be565b6105c9565b60405161021191906106fa565b60405180910390f35b34801561022657600080fd5b50610241600480360381019061023c91906106be565b6105e0565b60405161024e91906106fa565b60405180910390f35b6000600154905090565b66b1a2bc2ec500003410156102ab576040517f08c379a00000000000000000000000000000000000000000000000000000000081526004016102a2906108ab565b60405180910390fd5b6000600567ffffffffffffffff8111156102c8576102c76108cb565b5b6040519080825280602002602001820160405280156102f65781602001602082028036833780820191505090505b50905060028160008151811061030f5761030e6108fa565b5b602002602001018181525050600781600181518110610331576103306108fa565b5b602002602001018181525050600c81600281518110610353576103526108fa565b5b602002602001018181525050601181600381518110610375576103746108fa565b5b602002602001018181525050601681600481518110610397576103966108fa565b5b60200260200101818152505060006005905060008360028111156103be576103bd610929565b5b90505b6000826103cc610257565b6103d69190610987565b90506000600184600d6103e991906109e7565b6103f1610257565b6103fb9190610987565b61040591906109e7565b905084828151811061041a576104196108fa565b5b602002602001015181901b83179250838061043490610a3d565b94505084848151811061044a576104496108fa565b5b6020026020010151858381518110610465576104646108fa565b5b6020026020010181815250505050600082116103c1576000803373ffffffffffffffffffffffffffffffffffffffff1673ffffffffffffffffffffffffffffffffffffffff16815260200190815260200160002081908060018154018082558091505060019003906000526020600020016000909190919091505550505050565b6000601f60118363ffffffff16901c169050919050565b8060018190555050565b60606000803373ffffffffffffffffffffffffffffffffffffffff1673ffffffffffffffffffffffffffffffffffffffff16815260200190815260200160002080548060200260200160405190810160405280929190818152602001828054801561059157602002820191906000526020600020905b81548152602001906001019080831161057d575b5050505050905090565b6000601f60028363ffffffff16901c169050919050565b6000601f600c8363ffffffff16901c169050919050565b6000601f60078363ffffffff16901c169050919050565b6000601f60168363ffffffff16901c169050919050565b6000819050919050565b61060a816105f7565b82525050565b60006020820190506106256000830184610601565b92915050565b600080fd5b6003811061063d57600080fd5b50565b60008135905061064f81610630565b92915050565b60006020828403121561066b5761066a61062b565b5b600061067984828501610640565b91505092915050565b600063ffffffff82169050919050565b61069b81610682565b81146106a657600080fd5b50565b6000813590506106b881610692565b92915050565b6000602082840312156106d4576106d361062b565b5b60006106e2848285016106a9565b91505092915050565b6106f481610682565b82525050565b600060208201905061070f60008301846106eb565b92915050565b61071e816105f7565b811461072957600080fd5b50565b60008135905061073b81610715565b92915050565b6000602082840312156107575761075661062b565b5b60006107658482850161072c565b91505092915050565b600081519050919050565b600082825260208201905092915050565b6000819050602082019050919050565b6107a3816105f7565b82525050565b60006107b5838361079a565b60208301905092915050565b6000602082019050919050565b60006107d98261076e565b6107e38185610779565b93506107ee8361078a565b8060005b8381101561081f57815161080688826107a9565b9750610811836107c1565b9250506001810190506107f2565b5085935050505092915050565b6000602082019050818103600083015261084681846107ce565b905092915050565b600082825260208201905092915050565b7f506c656173652073656e64206d6f7265206d6f6e6579203a2900000000000000600082015250565b600061089560198361084e565b91506108a08261085f565b602082019050919050565b600060208201905081810360008301526108c481610888565b9050919050565b7f4e487b7100000000000000000000000000000000000000000000000000000000600052604160045260246000fd5b7f4e487b7100000000000000000000000000000000000000000000000000000000600052603260045260246000fd5b7f4e487b7100000000000000000000000000000000000000000000000000000000600052602160045260246000fd5b7f4e487b7100000000000000000000000000000000000000000000000000000000600052601260045260246000fd5b6000610992826105f7565b915061099d836105f7565b9250826109ad576109ac610958565b5b828206905092915050565b7f4e487b7100000000000000000000000000000000000000000000000000000000600052601160045260246000fd5b60006109f2826105f7565b91506109fd836105f7565b9250827fffffffffffffffffffffffffffffffffffffffffffffffffffffffffffffffff03821115610a3257610a316109b8565b5b828201905092915050565b6000610a48826105f7565b91506000821415610a5c57610a5b6109b8565b5b60018203905091905056fea264697066735822122099708889603872c613058c835c9e1d04c99b0381f93bb2c31ca9a556f4ce100f64736f6c634300080a0033",
  "linkReferences": {},
  "deployedLinkReferences": {}
}