{
  "_format": "hh-sol-artifact-1",
  "contractName": "Counter",
  "sourceName": "contracts/Counter.sol",
  "abi": [
    {
      "anonymous": false,
      "inputs": [
        {
          "indexed": false,
          "internalType": "uint32",
          "name": "counter",
          "type": "uint32"
        }
      ],
      "name": "CounterInc",
      "type": "event"
    },
    {
      "inputs": [],
      "name": "count",
      "outputs": [],
      "stateMutability": "nonpayable",
      "type": "function"
    },
    {
      "inputs": [],
      "name": "getCounter",
      "outputs": [
        {
          "internalType": "uint32",
          "name": "",
          "type": "uint32"
        }
      ],
      "stateMutability": "view",
      "type": "function"
    }
  ],
  "bytecode": "0x608060405234801561001057600080fd5b506103cd806100206000396000f3fe608060405234801561001057600080fd5b50600436106100365760003560e01c806306661abd1461003b5780638ada066e14610045575b600080fd5b610043610063565b005b61004d610141565b60405161005a919061023e565b60405180910390f35b60008081819054906101000a900463ffffffff168092919061008490610288565b91906101000a81548163ffffffff021916908363ffffffff160217905550506100f86040518060400160405280600e81526020017f436f756e746572206973206e6f7700000000000000000000000000000000000081525060008054906101000a900463ffffffff1663ffffffff1661015a565b7fb09f51db20aa473fdbfaa438388bca074ae4954884c8a48c9095abee19067dba60008054906101000a900463ffffffff16604051610137919061023e565b60405180910390a1565b60008060009054906101000a900463ffffffff16905090565b6101f28282604051602401610170929190610367565b6040516020818303038152906040527f9710a9d0000000000000000000000000000000000000000000000000000000007bffffffffffffffffffffffffffffffffffffffffffffffffffffffff19166020820180517bffffffffffffffffffffffffffffffffffffffffffffffffffffffff83818316178352505050506101f6565b5050565b60008151905060006a636f6e736f6c652e6c6f679050602083016000808483855afa5050505050565b600063ffffffff82169050919050565b6102388161021f565b82525050565b6000602082019050610253600083018461022f565b92915050565b7f4e487b7100000000000000000000000000000000000000000000000000000000600052601160045260246000fd5b60006102938261021f565b915063ffffffff8214156102aa576102a9610259565b5b600182019050919050565b600081519050919050565b600082825260208201905092915050565b60005b838110156102ef5780820151818401526020810190506102d4565b838111156102fe576000848401525b50505050565b6000601f19601f8301169050919050565b6000610320826102b5565b61032a81856102c0565b935061033a8185602086016102d1565b61034381610304565b840191505092915050565b6000819050919050565b6103618161034e565b82525050565b600060408201905081810360008301526103818185610315565b90506103906020830184610358565b939250505056fea26469706673582212200901647ea700cf418721ce228ce45cc6d96c650a725b961d8bd18f968f0788fe64736f6c634300080a0033",
  "linkReferences": {},
  "deployedLinkReferences": {}
}