{
  "_format": "hh-sol-artifact-1",
  "contractName": "NFTixBooth",
  "sourceName": "contracts/NFTixBooth.sol",
  "abi": [
    {
      "inputs": [],
      "stateMutability": "nonpayable",
      "type": "constructor"
    },
    {
      "anonymous": false,
      "inputs": [
        {
          "indexed": true,
          "internalType": "address",
          "name": "owner",
          "type": "address"
        },
        {
          "indexed": true,
          "internalType": "address",
          "name": "approved",
          "type": "address"
        },
        {
          "indexed": true,
          "internalType": "uint256",
          "name": "tokenId",
          "type": "uint256"
        }
      ],
      "name": "Approval",
      "type": "event"
    },
    {
      "anonymous": false,
      "inputs": [
        {
          "indexed": true,
          "internalType": "address",
          "name": "owner",
          "type": "address"
        },
        {
          "indexed": true,
          "internalType": "address",
          "name": "operator",
          "type": "address"
        },
        {
          "indexed": false,
          "internalType": "bool",
          "name": "approved",
          "type": "bool"
        }
      ],
      "name": "ApprovalForAll",
      "type": "event"
    },
    {
      "anonymous": false,
      "inputs": [
        {
          "indexed": true,
          "internalType": "address",
          "name": "previousOwner",
          "type": "address"
        },
        {
          "indexed": true,
          "internalType": "address",
          "name": "newOwner",
          "type": "address"
        }
      ],
      "name": "OwnershipTransferred",
      "type": "event"
    },
    {
      "anonymous": false,
      "inputs": [
        {
          "indexed": true,
          "internalType": "address",
          "name": "from",
          "type": "address"
        },
        {
          "indexed": true,
          "internalType": "address",
          "name": "to",
          "type": "address"
        },
        {
          "indexed": true,
          "internalType": "uint256",
          "name": "tokenId",
          "type": "uint256"
        }
      ],
      "name": "Transfer",
      "type": "event"
    },
    {
      "inputs": [
        {
          "internalType": "address",
          "name": "to",
          "type": "address"
        },
        {
          "internalType": "uint256",
          "name": "tokenId",
          "type": "uint256"
        }
      ],
      "name": "approve",
      "outputs": [],
      "stateMutability": "nonpayable",
      "type": "function"
    },
    {
      "inputs": [],
      "name": "availableTickets",
      "outputs": [
        {
          "internalType": "uint256",
          "name": "",
          "type": "uint256"
        }
      ],
      "stateMutability": "view",
      "type": "function"
    },
    {
      "inputs": [],
      "name": "availableTicketsCount",
      "outputs": [
        {
          "internalType": "uint256",
          "name": "",
          "type": "uint256"
        }
      ],
      "stateMutability": "view",
      "type": "function"
    },
    {
      "inputs": [
        {
          "internalType": "address",
          "name": "owner",
          "type": "address"
        }
      ],
      "name": "balanceOf",
      "outputs": [
        {
          "internalType": "uint256",
          "name": "",
          "type": "uint256"
        }
      ],
      "stateMutability": "view",
      "type": "function"
    },
    {
      "inputs": [],
      "name": "closeSale",
      "outputs": [],
      "stateMutability": "nonpayable",
      "type": "function"
    },
    {
      "inputs": [
        {
          "internalType": "address",
          "name": "addy",
          "type": "address"
        }
      ],
      "name": "confirmOwnership",
      "outputs": [
        {
          "internalType": "bool",
          "name": "",
          "type": "bool"
        }
      ],
      "stateMutability": "view",
      "type": "function"
    },
    {
      "inputs": [
        {
          "internalType": "uint256",
          "name": "tokenId",
          "type": "uint256"
        }
      ],
      "name": "getApproved",
      "outputs": [
        {
          "internalType": "address",
          "name": "",
          "type": "address"
        }
      ],
      "stateMutability": "view",
      "type": "function"
    },
    {
      "inputs": [
        {
          "internalType": "address",
          "name": "",
          "type": "address"
        },
        {
          "internalType": "uint256",
          "name": "",
          "type": "uint256"
        }
      ],
      "name": "holderTokenIDs",
      "outputs": [
        {
          "internalType": "uint256",
          "name": "",
          "type": "uint256"
        }
      ],
      "stateMutability": "view",
      "type": "function"
    },
    {
      "inputs": [
        {
          "internalType": "address",
          "name": "owner",
          "type": "address"
        },
        {
          "internalType": "address",
          "name": "operator",
          "type": "address"
        }
      ],
      "name": "isApprovedForAll",
      "outputs": [
        {
          "internalType": "bool",
          "name": "",
          "type": "bool"
        }
      ],
      "stateMutability": "view",
      "type": "function"
    },
    {
      "inputs": [],
      "name": "mint",
      "outputs": [],
      "stateMutability": "payable",
      "type": "function"
    },
    {
      "inputs": [],
      "name": "mintPrice",
      "outputs": [
        {
          "internalType": "uint256",
          "name": "",
          "type": "uint256"
        }
      ],
      "stateMutability": "view",
      "type": "function"
    },
    {
      "inputs": [],
      "name": "name",
      "outputs": [
        {
          "internalType": "string",
          "name": "",
          "type": "string"
        }
      ],
      "stateMutability": "view",
      "type": "function"
    },
    {
      "inputs": [],
      "name": "openSale",
      "outputs": [],
      "stateMutability": "nonpayable",
      "type": "function"
    },
    {
      "inputs": [],
      "name": "owner",
      "outputs": [
        {
          "internalType": "address",
          "name": "",
          "type": "address"
        }
      ],
      "stateMutability": "view",
      "type": "function"
    },
    {
      "inputs": [
        {
          "internalType": "uint256",
          "name": "tokenId",
          "type": "uint256"
        }
      ],
      "name": "ownerOf",
      "outputs": [
        {
          "internalType": "address",
          "name": "",
          "type": "address"
        }
      ],
      "stateMutability": "view",
      "type": "function"
    },
    {
      "inputs": [],
      "name": "renounceOwnership",
      "outputs": [],
      "stateMutability": "nonpayable",
      "type": "function"
    },
    {
      "inputs": [
        {
          "internalType": "address",
          "name": "from",
          "type": "address"
        },
        {
          "internalType": "address",
          "name": "to",
          "type": "address"
        },
        {
          "internalType": "uint256",
          "name": "tokenId",
          "type": "uint256"
        }
      ],
      "name": "safeTransferFrom",
      "outputs": [],
      "stateMutability": "nonpayable",
      "type": "function"
    },
    {
      "inputs": [
        {
          "internalType": "address",
          "name": "from",
          "type": "address"
        },
        {
          "internalType": "address",
          "name": "to",
          "type": "address"
        },
        {
          "internalType": "uint256",
          "name": "tokenId",
          "type": "uint256"
        },
        {
          "internalType": "bytes",
          "name": "_data",
          "type": "bytes"
        }
      ],
      "name": "safeTransferFrom",
      "outputs": [],
      "stateMutability": "nonpayable",
      "type": "function"
    },
    {
      "inputs": [],
      "name": "saleIsActive",
      "outputs": [
        {
          "internalType": "bool",
          "name": "",
          "type": "bool"
        }
      ],
      "stateMutability": "view",
      "type": "function"
    },
    {
      "inputs": [
        {
          "internalType": "address",
          "name": "operator",
          "type": "address"
        },
        {
          "internalType": "bool",
          "name": "approved",
          "type": "bool"
        }
      ],
      "name": "setApprovalForAll",
      "outputs": [],
      "stateMutability": "nonpayable",
      "type": "function"
    },
    {
      "inputs": [
        {
          "internalType": "bytes4",
          "name": "interfaceId",
          "type": "bytes4"
        }
      ],
      "name": "supportsInterface",
      "outputs": [
        {
          "internalType": "bool",
          "name": "",
          "type": "bool"
        }
      ],
      "stateMutability": "view",
      "type": "function"
    },
    {
      "inputs": [],
      "name": "symbol",
      "outputs": [
        {
          "internalType": "string",
          "name": "",
          "type": "string"
        }
      ],
      "stateMutability": "view",
      "type": "function"
    },
    {
      "inputs": [
        {
          "internalType": "uint256",
          "name": "tokenId",
          "type": "uint256"
        }
      ],
      "name": "tokenURI",
      "outputs": [
        {
          "internalType": "string",
          "name": "",
          "type": "string"
        }
      ],
      "stateMutability": "view",
      "type": "function"
    },
    {
      "inputs": [],
      "name": "totalTicketCount",
      "outputs": [
        {
          "internalType": "uint256",
          "name": "",
          "type": "uint256"
        }
      ],
      "stateMutability": "view",
      "type": "function"
    },
    {
      "inputs": [],
      "name": "totalTickets",
      "outputs": [
        {
          "internalType": "uint256",
          "name": "",
          "type": "uint256"
        }
      ],
      "stateMutability": "view",
      "type": "function"
    },
    {
      "inputs": [
        {
          "internalType": "address",
          "name": "from",
          "type": "address"
        },
        {
          "internalType": "address",
          "name": "to",
          "type": "address"
        },
        {
          "internalType": "uint256",
          "name": "tokenId",
          "type": "uint256"
        }
      ],
      "name": "transferFrom",
      "outputs": [],
      "stateMutability": "nonpayable",
      "type": "function"
    },
    {
      "inputs": [
        {
          "internalType": "address",
          "name": "newOwner",
          "type": "address"
        }
      ],
      "name": "transferOwnership",
      "outputs": [],
      "stateMutability": "nonpayable",
      "type": "function"
    }
  ],
  "bytecode": "0x60806040526009805460ff19169055600a808055600b5567011c37937e080000600c553480156200002f57600080fd5b50604080518082018252600581526409c8ca8d2f60db1b60208083019182528351808501909452600484526309c8ca8b60e31b908401528151919291620000799160009162000128565b5080516200008f90600190602084019062000128565b505050620000ac620000a6620000c960201b60201c565b620000cd565b620000c360086200011f60201b62000e2b1760201c565b6200020b565b3390565b600780546001600160a01b038381166001600160a01b0319831681179093556040519116919082907f8be0079c531659141344cd1fd0a4f28419497f9722a3daafe3b4186f6b6457e090600090a35050565b80546001019055565b8280546200013690620001ce565b90600052602060002090601f0160209004810192826200015a5760008555620001a5565b82601f106200017557805160ff1916838001178555620001a5565b82800160010185558215620001a5579182015b82811115620001a557825182559160200191906001019062000188565b50620001b3929150620001b7565b5090565b5b80821115620001b35760008155600101620001b8565b600181811c90821680620001e357607f821691505b602082108114156200020557634e487b7160e01b600052602260045260246000fd5b50919050565b61217a806200021b6000396000f3fe60806040526004361061019c5760003560e01c806370a08231116100ec578063b88d4fde1161008a578063e985e9c511610064578063e985e9c514610465578063eb8d2444146104ae578063ee55efee146104c8578063f2fde38b146104dd57600080fd5b8063b88d4fde1461040f578063c87b56dd1461042f578063dd11247e1461044f57600080fd5b806382ac0bb8116100c657806382ac0bb81461039c5780638da5cb5b146103bc57806395d89b41146103da578063a22cb465146103ef57600080fd5b806370a082311461032f578063715018a61461034f57806380f2abe31461036457600080fd5b8063167ff46f1161015957806342842e0e1161013357806342842e0e146102c457806354528f2d146102e45780636352211e146102f95780636817c76c1461031957600080fd5b8063167ff46f1461027957806323b872dd1461028e5780633cfa7e01146102ae57600080fd5b806301ffc9a7146101a157806306fdde03146101d6578063081812fc146101f8578063095ea7b3146102305780631249c58b1461025257806314558fab1461025a575b600080fd5b3480156101ad57600080fd5b506101c16101bc366004611bb2565b6104fd565b60405190151581526020015b60405180910390f35b3480156101e257600080fd5b506101eb61054f565b6040516101cd9190611e7e565b34801561020457600080fd5b50610218610213366004611bea565b6105e1565b6040516001600160a01b0390911681526020016101cd565b34801561023c57600080fd5b5061025061024b366004611b89565b61066e565b005b610250610784565b34801561026657600080fd5b50600a545b6040519081526020016101cd565b34801561028557600080fd5b506102506109a3565b34801561029a57600080fd5b506102506102a9366004611a3f565b6109dc565b3480156102ba57600080fd5b5061026b600b5481565b3480156102d057600080fd5b506102506102df366004611a3f565b610a0d565b3480156102f057600080fd5b50600b5461026b565b34801561030557600080fd5b50610218610314366004611bea565b610a28565b34801561032557600080fd5b5061026b600c5481565b34801561033b57600080fd5b5061026b61034a3660046119f3565b610a9f565b34801561035b57600080fd5b50610250610b26565b34801561037057600080fd5b506101c161037f3660046119f3565b6001600160a01b03166000908152600d6020526040902054151590565b3480156103a857600080fd5b5061026b6103b7366004611b89565b610b5c565b3480156103c857600080fd5b506007546001600160a01b0316610218565b3480156103e657600080fd5b506101eb610b8d565b3480156103fb57600080fd5b5061025061040a366004611b4f565b610b9c565b34801561041b57600080fd5b5061025061042a366004611a7a565b610bab565b34801561043b57600080fd5b506101eb61044a366004611bea565b610be3565b34801561045b57600080fd5b5061026b600a5481565b34801561047157600080fd5b506101c1610480366004611a0d565b6001600160a01b03918216600090815260056020908152604080832093909416825291909152205460ff1690565b3480156104ba57600080fd5b506009546101c19060ff1681565b3480156104d457600080fd5b50610250610d5a565b3480156104e957600080fd5b506102506104f83660046119f3565b610d90565b60006001600160e01b031982166380ac58cd60e01b148061052e57506001600160e01b03198216635b5e139f60e01b145b8061054957506301ffc9a760e01b6001600160e01b03198316145b92915050565b60606000805461055e90611ff7565b80601f016020809104026020016040519081016040528092919081815260200182805461058a90611ff7565b80156105d75780601f106105ac576101008083540402835291602001916105d7565b820191906000526020600020905b8154815290600101906020018083116105ba57829003601f168201915b5050505050905090565b60006105ec82610e34565b6106525760405162461bcd60e51b815260206004820152602c60248201527f4552433732313a20617070726f76656420717565727920666f72206e6f6e657860448201526b34b9ba32b73a103a37b5b2b760a11b60648201526084015b60405180910390fd5b506000908152600460205260409020546001600160a01b031690565b600061067982610a28565b9050806001600160a01b0316836001600160a01b031614156106e75760405162461bcd60e51b815260206004820152602160248201527f4552433732313a20617070726f76616c20746f2063757272656e74206f776e656044820152603960f91b6064820152608401610649565b336001600160a01b038216148061070357506107038133610480565b6107755760405162461bcd60e51b815260206004820152603860248201527f4552433732313a20617070726f76652063616c6c6572206973206e6f74206f7760448201527f6e6572206e6f7220617070726f76656420666f7220616c6c00000000000000006064820152608401610649565b61077f8383610e51565b505050565b6000600b54116107cc5760405162461bcd60e51b81526020600482015260136024820152722737ba1032b737bab3b4103a34b1b5b2ba399760691b6044820152606401610649565b600c543410156108105760405162461bcd60e51b815260206004820152600f60248201526e4e6f7420656e6f756768204554482160881b6044820152606401610649565b60095460ff166108625760405162461bcd60e51b815260206004820152601860248201527f5469636b65747320617265206e6f74206f6e2073616c652100000000000000006044820152606401610649565b61086a611917565b6040518060800160405280604b81526020016120ba604b9139815260085461089690610ebf565b610ebf565b6020828101918252604080518082018252600d81526c1e17ba32bc3a1f1e17b9bb339f60991b818401528185018190528451935191516000946108dd949093929101611c5d565b604051602081830303815290604052905060006108f982610fd9565b9050600061093261090c61089160085490565b8360405160200161091e929190611ce5565b604051602081830303815290604052610fd9565b90506000816040516020016109479190611ca0565b604051602081830303815290604052905061096a3361096560085490565b61114d565b61097c61097660085490565b82611167565b61098a600880546001019055565b6001600b546109999190611fb4565b600b555050505050565b6007546001600160a01b031633146109cd5760405162461bcd60e51b815260040161064990611ee3565b6009805460ff19166001179055565b6109e633826111f2565b610a025760405162461bcd60e51b815260040161064990611f18565b61077f8383836112d8565b61077f83838360405180602001604052806000815250610bab565b6000818152600260205260408120546001600160a01b0316806105495760405162461bcd60e51b815260206004820152602960248201527f4552433732313a206f776e657220717565727920666f72206e6f6e657869737460448201526832b73a103a37b5b2b760b91b6064820152608401610649565b60006001600160a01b038216610b0a5760405162461bcd60e51b815260206004820152602a60248201527f4552433732313a2062616c616e636520717565727920666f7220746865207a65604482015269726f206164647265737360b01b6064820152608401610649565b506001600160a01b031660009081526003602052604090205490565b6007546001600160a01b03163314610b505760405162461bcd60e51b815260040161064990611ee3565b610b5a6000611478565b565b600d6020528160005260406000208181548110610b7857600080fd5b90600052602060002001600091509150505481565b60606001805461055e90611ff7565b610ba73383836114ca565b5050565b610bb533836111f2565b610bd15760405162461bcd60e51b815260040161064990611f18565b610bdd84848484611599565b50505050565b6060610bee82610e34565b610c545760405162461bcd60e51b815260206004820152603160248201527f45524337323155524953746f726167653a2055524920717565727920666f72206044820152703737b732bc34b9ba32b73a103a37b5b2b760791b6064820152608401610649565b60008281526006602052604081208054610c6d90611ff7565b80601f0160208091040260200160405190810160405280929190818152602001828054610c9990611ff7565b8015610ce65780601f10610cbb57610100808354040283529160200191610ce6565b820191906000526020600020905b815481529060010190602001808311610cc957829003601f168201915b505050505090506000610d0460408051602081019091526000815290565b9050805160001415610d17575092915050565b815115610d49578082604051602001610d31929190611c2e565b60405160208183030381529060405292505050919050565b610d52846115cc565b949350505050565b6007546001600160a01b03163314610d845760405162461bcd60e51b815260040161064990611ee3565b6009805460ff19169055565b6007546001600160a01b03163314610dba5760405162461bcd60e51b815260040161064990611ee3565b6001600160a01b038116610e1f5760405162461bcd60e51b815260206004820152602660248201527f4f776e61626c653a206e6577206f776e657220697320746865207a65726f206160448201526564647265737360d01b6064820152608401610649565b610e2881611478565b50565b80546001019055565b6000908152600260205260409020546001600160a01b0316151590565b600081815260046020526040902080546001600160a01b0319166001600160a01b0384169081179091558190610e8682610a28565b6001600160a01b03167f8c5be1e5ebec7d5bd14f71427d1e84f3dd0314c0f7b2291e5b200ac8c7c3b92560405160405180910390a45050565b606081610ee35750506040805180820190915260018152600360fc1b602082015290565b8160005b8115610f0d5780610ef781612032565b9150610f069050600a83611f81565b9150610ee7565b60008167ffffffffffffffff811115610f3657634e487b7160e01b600052604160045260246000fd5b6040519080825280601f01601f191660200182016040528015610f60576020820181803683370190505b5090505b8415610d5257610f75600183611fb4565b9150610f82600a8661204d565b610f8d906030611f69565b60f81b818381518110610fb057634e487b7160e01b600052603260045260246000fd5b60200101906001600160f81b031916908160001a905350610fd2600a86611f81565b9450610f64565b805160609080610ff9575050604080516020810190915260008152919050565b60006003611008836002611f69565b6110129190611f81565b61101d906004611f95565b9050600061102c826020611f69565b67ffffffffffffffff81111561105257634e487b7160e01b600052604160045260246000fd5b6040519080825280601f01601f19166020018201604052801561107c576020820181803683370190505b5090506000604051806060016040528060408152602001612105604091399050600181016020830160005b86811015611108576003818a01810151603f601282901c8116860151600c83901c8216870151600684901c831688015192909316870151600891821b60ff94851601821b92841692909201901b91160160e01b8352600490920191016110a7565b50600386066001811461112257600281146111335761113f565b613d3d60f01b60011983015261113f565b603d60f81b6000198301525b505050918152949350505050565b610ba78282604051806020016040528060008152506116a4565b61117082610e34565b6111d35760405162461bcd60e51b815260206004820152602e60248201527f45524337323155524953746f726167653a2055524920736574206f66206e6f6e60448201526d32bc34b9ba32b73a103a37b5b2b760911b6064820152608401610649565b6000828152600660209081526040909120825161077f9284019061193e565b60006111fd82610e34565b61125e5760405162461bcd60e51b815260206004820152602c60248201527f4552433732313a206f70657261746f7220717565727920666f72206e6f6e657860448201526b34b9ba32b73a103a37b5b2b760a11b6064820152608401610649565b600061126983610a28565b9050806001600160a01b0316846001600160a01b031614806112a45750836001600160a01b0316611299846105e1565b6001600160a01b0316145b80610d5257506001600160a01b0380821660009081526005602090815260408083209388168352929052205460ff16610d52565b826001600160a01b03166112eb82610a28565b6001600160a01b0316146113535760405162461bcd60e51b815260206004820152602960248201527f4552433732313a207472616e73666572206f6620746f6b656e2074686174206960448201526839903737ba1037bbb760b91b6064820152608401610649565b6001600160a01b0382166113b55760405162461bcd60e51b8152602060048201526024808201527f4552433732313a207472616e7366657220746f20746865207a65726f206164646044820152637265737360e01b6064820152608401610649565b6113c0600082610e51565b6001600160a01b03831660009081526003602052604081208054600192906113e9908490611fb4565b90915550506001600160a01b0382166000908152600360205260408120805460019290611417908490611f69565b909155505060008181526002602052604080822080546001600160a01b0319166001600160a01b0386811691821790925591518493918716917fddf252ad1be2c89b69c2b068fc378daa952ba7f163c4a11628f55a4df523b3ef91a4505050565b600780546001600160a01b038381166001600160a01b0319831681179093556040519116919082907f8be0079c531659141344cd1fd0a4f28419497f9722a3daafe3b4186f6b6457e090600090a35050565b816001600160a01b0316836001600160a01b0316141561152c5760405162461bcd60e51b815260206004820152601960248201527f4552433732313a20617070726f766520746f2063616c6c6572000000000000006044820152606401610649565b6001600160a01b03838116600081815260056020908152604080832094871680845294825291829020805460ff191686151590811790915591519182527f17307eab39ab6107e8899845ad3d59bd9653f200f220920489ca2b5937696c31910160405180910390a3505050565b6115a48484846112d8565b6115b0848484846116d7565b610bdd5760405162461bcd60e51b815260040161064990611e91565b60606115d782610e34565b61163b5760405162461bcd60e51b815260206004820152602f60248201527f4552433732314d657461646174613a2055524920717565727920666f72206e6f60448201526e3732bc34b9ba32b73a103a37b5b2b760891b6064820152608401610649565b600061165260408051602081019091526000815290565b90506000815111611672576040518060200160405280600081525061169d565b8061167c84610ebf565b60405160200161168d929190611c2e565b6040516020818303038152906040525b9392505050565b6116ae83836117e4565b6116bb60008484846116d7565b61077f5760405162461bcd60e51b815260040161064990611e91565b60006001600160a01b0384163b156117d957604051630a85bd0160e11b81526001600160a01b0385169063150b7a029061171b903390899088908890600401611e4b565b602060405180830381600087803b15801561173557600080fd5b505af1925050508015611765575060408051601f3d908101601f1916820190925261176291810190611bce565b60015b6117bf573d808015611793576040519150601f19603f3d011682016040523d82523d6000602084013e611798565b606091505b5080516117b75760405162461bcd60e51b815260040161064990611e91565b805181602001fd5b6001600160e01b031916630a85bd0160e11b149050610d52565b506001949350505050565b6001600160a01b03821661183a5760405162461bcd60e51b815260206004820181905260248201527f4552433732313a206d696e7420746f20746865207a65726f20616464726573736044820152606401610649565b61184381610e34565b156118905760405162461bcd60e51b815260206004820152601c60248201527f4552433732313a20746f6b656e20616c7265616479206d696e746564000000006044820152606401610649565b6001600160a01b03821660009081526003602052604081208054600192906118b9908490611f69565b909155505060008181526002602052604080822080546001600160a01b0319166001600160a01b03861690811790915590518392907fddf252ad1be2c89b69c2b068fc378daa952ba7f163c4a11628f55a4df523b3ef908290a45050565b60405180606001604052806003905b60608152602001906001900390816119265790505090565b82805461194a90611ff7565b90600052602060002090601f01602090048101928261196c57600085556119b2565b82601f1061198557805160ff19168380011785556119b2565b828001600101855582156119b2579182015b828111156119b2578251825591602001919060010190611997565b506119be9291506119c2565b5090565b5b808211156119be57600081556001016119c3565b80356001600160a01b03811681146119ee57600080fd5b919050565b600060208284031215611a04578081fd5b61169d826119d7565b60008060408385031215611a1f578081fd5b611a28836119d7565b9150611a36602084016119d7565b90509250929050565b600080600060608486031215611a53578081fd5b611a5c846119d7565b9250611a6a602085016119d7565b9150604084013590509250925092565b60008060008060808587031215611a8f578081fd5b611a98856119d7565b9350611aa6602086016119d7565b925060408501359150606085013567ffffffffffffffff80821115611ac9578283fd5b818701915087601f830112611adc578283fd5b813581811115611aee57611aee61208d565b604051601f8201601f19908116603f01168101908382118183101715611b1657611b1661208d565b816040528281528a6020848701011115611b2e578586fd5b82602086016020830137918201602001949094529598949750929550505050565b60008060408385031215611b61578182fd5b611b6a836119d7565b915060208301358015158114611b7e578182fd5b809150509250929050565b60008060408385031215611b9b578182fd5b611ba4836119d7565b946020939093013593505050565b600060208284031215611bc3578081fd5b813561169d816120a3565b600060208284031215611bdf578081fd5b815161169d816120a3565b600060208284031215611bfb578081fd5b5035919050565b60008151808452611c1a816020860160208601611fcb565b601f01601f19169290920160200192915050565b60008351611c40818460208801611fcb565b835190830190611c54818360208801611fcb565b01949350505050565b60008451611c6f818460208901611fcb565b845190830190611c83818360208901611fcb565b8451910190611c96818360208801611fcb565b0195945050505050565b7f646174613a6170706c69636174696f6e2e6a736f6e3b206261736536342c0000815260008251611cd881601e850160208701611fcb565b91909101601e0192915050565b717b20226e616d65223a20224e46546978202360701b81528251600090611d13816012850160208801611fcb565b7f222c20226465736372697074696f6e223a202241204e46542d706f7765726564601291840191820152730103a34b1b5b2ba34b7339039bcb9ba32b69116160651b60328201527f22747261697473223a205b7b202274726169745f74797065223a20224368656360468201527f6b656420496e222c202276616c7565223a202266616c736522207d2c207b202260668201527f74726169745f74797065223a2022507572636861736564222c202276616c756560868201526d0111d10113a393ab291103eae96160951b60a68201527f22696d616765223a2022646174613a696d6167652f7376672b786d6c3b62617360b482015263194d8d0b60e21b60d48201528351611e298160d8840160208801611fcb565b611e4160d8828401016222207d60e81b815260030190565b9695505050505050565b6001600160a01b0385811682528416602082015260408101839052608060608201819052600090611e4190830184611c02565b60208152600061169d6020830184611c02565b60208082526032908201527f4552433732313a207472616e7366657220746f206e6f6e20455243373231526560408201527131b2b4bb32b91034b6b83632b6b2b73a32b960711b606082015260800190565b6020808252818101527f4f776e61626c653a2063616c6c6572206973206e6f7420746865206f776e6572604082015260600190565b60208082526031908201527f4552433732313a207472616e736665722063616c6c6572206973206e6f74206f6040820152701ddb995c881b9bdc88185c1c1c9bdd9959607a1b606082015260800190565b60008219821115611f7c57611f7c612061565b500190565b600082611f9057611f90612077565b500490565b6000816000190483118215151615611faf57611faf612061565b500290565b600082821015611fc657611fc6612061565b500390565b60005b83811015611fe6578181015183820152602001611fce565b83811115610bdd5750506000910152565b600181811c9082168061200b57607f821691505b6020821081141561202c57634e487b7160e01b600052602260045260246000fd5b50919050565b600060001982141561204657612046612061565b5060010190565b60008261205c5761205c612077565b500690565b634e487b7160e01b600052601160045260246000fd5b634e487b7160e01b600052601260045260246000fd5b634e487b7160e01b600052604160045260246000fd5b6001600160e01b031981168114610e2857600080fdfe3c7376672076696577426f783d2230203020313030203130302220786d6c6e733d22687474703a2f2f7777772e77332e6f72672f323030302f737667223e3c7465787420793d223530223e4142434445464748494a4b4c4d4e4f505152535455565758595a6162636465666768696a6b6c6d6e6f707172737475767778797a303132333435363738392b2fa2646970667358221220144ad8317e265f22ad7a22e38dedc433e3951e5cc1d435df5bd302f88fc5259264736f6c63430008040033",
  "linkReferences": {},
  "deployedLinkReferences": {}
}