{
  "_format": "hh-sol-artifact-1",
  "contractName": "NFTixBooth",
  "sourceName": "contracts/NFTixBooth.sol",
  "abi": [
    {
      "inputs": [],
      "stateMutability": "nonpayable",
      "type": "constructor"
    },
    {
      "anonymous": false,
      "inputs": [
        {
          "indexed": true,
          "internalType": "address",
          "name": "owner",
          "type": "address"
        },
        {
          "indexed": true,
          "internalType": "address",
          "name": "approved",
          "type": "address"
        },
        {
          "indexed": true,
          "internalType": "uint256",
          "name": "tokenId",
          "type": "uint256"
        }
      ],
      "name": "Approval",
      "type": "event"
    },
    {
      "anonymous": false,
      "inputs": [
        {
          "indexed": true,
          "internalType": "address",
          "name": "owner",
          "type": "address"
        },
        {
          "indexed": true,
          "internalType": "address",
          "name": "operator",
          "type": "address"
        },
        {
          "indexed": false,
          "internalType": "bool",
          "name": "approved",
          "type": "bool"
        }
      ],
      "name": "ApprovalForAll",
      "type": "event"
    },
    {
      "anonymous": false,
      "inputs": [
        {
          "indexed": true,
          "internalType": "address",
          "name": "previousOwner",
          "type": "address"
        },
        {
          "indexed": true,
          "internalType": "address",
          "name": "newOwner",
          "type": "address"
        }
      ],
      "name": "OwnershipTransferred",
      "type": "event"
    },
    {
      "anonymous": false,
      "inputs": [
        {
          "indexed": true,
          "internalType": "address",
          "name": "from",
          "type": "address"
        },
        {
          "indexed": true,
          "internalType": "address",
          "name": "to",
          "type": "address"
        },
        {
          "indexed": true,
          "internalType": "uint256",
          "name": "tokenId",
          "type": "uint256"
        }
      ],
      "name": "Transfer",
      "type": "event"
    },
    {
      "inputs": [
        {
          "internalType": "address",
          "name": "to",
          "type": "address"
        },
        {
          "internalType": "uint256",
          "name": "tokenId",
          "type": "uint256"
        }
      ],
      "name": "approve",
      "outputs": [],
      "stateMutability": "nonpayable",
      "type": "function"
    },
    {
      "inputs": [],
      "name": "availableTickets",
      "outputs": [
        {
          "internalType": "uint256",
          "name": "",
          "type": "uint256"
        }
      ],
      "stateMutability": "view",
      "type": "function"
    },
    {
      "inputs": [],
      "name": "availableTicketsCount",
      "outputs": [
        {
          "internalType": "uint256",
          "name": "",
          "type": "uint256"
        }
      ],
      "stateMutability": "view",
      "type": "function"
    },
    {
      "inputs": [
        {
          "internalType": "address",
          "name": "owner",
          "type": "address"
        }
      ],
      "name": "balanceOf",
      "outputs": [
        {
          "internalType": "uint256",
          "name": "",
          "type": "uint256"
        }
      ],
      "stateMutability": "view",
      "type": "function"
    },
    {
      "inputs": [],
      "name": "closeSale",
      "outputs": [],
      "stateMutability": "nonpayable",
      "type": "function"
    },
    {
      "inputs": [
        {
          "internalType": "uint256",
          "name": "tokenId",
          "type": "uint256"
        }
      ],
      "name": "getApproved",
      "outputs": [
        {
          "internalType": "address",
          "name": "",
          "type": "address"
        }
      ],
      "stateMutability": "view",
      "type": "function"
    },
    {
      "inputs": [
        {
          "internalType": "address",
          "name": "",
          "type": "address"
        },
        {
          "internalType": "uint256",
          "name": "",
          "type": "uint256"
        }
      ],
      "name": "holderTokenIDs",
      "outputs": [
        {
          "internalType": "uint256",
          "name": "",
          "type": "uint256"
        }
      ],
      "stateMutability": "view",
      "type": "function"
    },
    {
      "inputs": [
        {
          "internalType": "address",
          "name": "owner",
          "type": "address"
        },
        {
          "internalType": "address",
          "name": "operator",
          "type": "address"
        }
      ],
      "name": "isApprovedForAll",
      "outputs": [
        {
          "internalType": "bool",
          "name": "",
          "type": "bool"
        }
      ],
      "stateMutability": "view",
      "type": "function"
    },
    {
      "inputs": [],
      "name": "mint",
      "outputs": [],
      "stateMutability": "payable",
      "type": "function"
    },
    {
      "inputs": [],
      "name": "mintPrice",
      "outputs": [
        {
          "internalType": "uint256",
          "name": "",
          "type": "uint256"
        }
      ],
      "stateMutability": "view",
      "type": "function"
    },
    {
      "inputs": [],
      "name": "name",
      "outputs": [
        {
          "internalType": "string",
          "name": "",
          "type": "string"
        }
      ],
      "stateMutability": "view",
      "type": "function"
    },
    {
      "inputs": [],
      "name": "openSale",
      "outputs": [],
      "stateMutability": "nonpayable",
      "type": "function"
    },
    {
      "inputs": [],
      "name": "owner",
      "outputs": [
        {
          "internalType": "address",
          "name": "",
          "type": "address"
        }
      ],
      "stateMutability": "view",
      "type": "function"
    },
    {
      "inputs": [
        {
          "internalType": "uint256",
          "name": "tokenId",
          "type": "uint256"
        }
      ],
      "name": "ownerOf",
      "outputs": [
        {
          "internalType": "address",
          "name": "",
          "type": "address"
        }
      ],
      "stateMutability": "view",
      "type": "function"
    },
    {
      "inputs": [],
      "name": "renounceOwnership",
      "outputs": [],
      "stateMutability": "nonpayable",
      "type": "function"
    },
    {
      "inputs": [
        {
          "internalType": "address",
          "name": "from",
          "type": "address"
        },
        {
          "internalType": "address",
          "name": "to",
          "type": "address"
        },
        {
          "internalType": "uint256",
          "name": "tokenId",
          "type": "uint256"
        }
      ],
      "name": "safeTransferFrom",
      "outputs": [],
      "stateMutability": "nonpayable",
      "type": "function"
    },
    {
      "inputs": [
        {
          "internalType": "address",
          "name": "from",
          "type": "address"
        },
        {
          "internalType": "address",
          "name": "to",
          "type": "address"
        },
        {
          "internalType": "uint256",
          "name": "tokenId",
          "type": "uint256"
        },
        {
          "internalType": "bytes",
          "name": "_data",
          "type": "bytes"
        }
      ],
      "name": "safeTransferFrom",
      "outputs": [],
      "stateMutability": "nonpayable",
      "type": "function"
    },
    {
      "inputs": [],
      "name": "saleIsActive",
      "outputs": [
        {
          "internalType": "bool",
          "name": "",
          "type": "bool"
        }
      ],
      "stateMutability": "view",
      "type": "function"
    },
    {
      "inputs": [
        {
          "internalType": "address",
          "name": "operator",
          "type": "address"
        },
        {
          "internalType": "bool",
          "name": "approved",
          "type": "bool"
        }
      ],
      "name": "setApprovalForAll",
      "outputs": [],
      "stateMutability": "nonpayable",
      "type": "function"
    },
    {
      "inputs": [
        {
          "internalType": "bytes4",
          "name": "interfaceId",
          "type": "bytes4"
        }
      ],
      "name": "supportsInterface",
      "outputs": [
        {
          "internalType": "bool",
          "name": "",
          "type": "bool"
        }
      ],
      "stateMutability": "view",
      "type": "function"
    },
    {
      "inputs": [],
      "name": "symbol",
      "outputs": [
        {
          "internalType": "string",
          "name": "",
          "type": "string"
        }
      ],
      "stateMutability": "view",
      "type": "function"
    },
    {
      "inputs": [
        {
          "internalType": "uint256",
          "name": "tokenId",
          "type": "uint256"
        }
      ],
      "name": "tokenURI",
      "outputs": [
        {
          "internalType": "string",
          "name": "",
          "type": "string"
        }
      ],
      "stateMutability": "view",
      "type": "function"
    },
    {
      "inputs": [],
      "name": "totalTicketCount",
      "outputs": [
        {
          "internalType": "uint256",
          "name": "",
          "type": "uint256"
        }
      ],
      "stateMutability": "view",
      "type": "function"
    },
    {
      "inputs": [],
      "name": "totalTickets",
      "outputs": [
        {
          "internalType": "uint256",
          "name": "",
          "type": "uint256"
        }
      ],
      "stateMutability": "view",
      "type": "function"
    },
    {
      "inputs": [
        {
          "internalType": "address",
          "name": "from",
          "type": "address"
        },
        {
          "internalType": "address",
          "name": "to",
          "type": "address"
        },
        {
          "internalType": "uint256",
          "name": "tokenId",
          "type": "uint256"
        }
      ],
      "name": "transferFrom",
      "outputs": [],
      "stateMutability": "nonpayable",
      "type": "function"
    },
    {
      "inputs": [
        {
          "internalType": "address",
          "name": "newOwner",
          "type": "address"
        }
      ],
      "name": "transferOwnership",
      "outputs": [],
      "stateMutability": "nonpayable",
      "type": "function"
    }
  ],
  "bytecode": "0x60806040526009805460ff19169055600a808055600b5567011c37937e080000600c553480156200002f57600080fd5b50604080518082018252600581526409c8ca8d2f60db1b60208083019182528351808501909452600484526309c8ca8b60e31b908401528151919291620000799160009162000128565b5080516200008f90600190602084019062000128565b505050620000ac620000a6620000c960201b60201c565b620000cd565b620000c360086200011f60201b62000dd81760201c565b6200020b565b3390565b600780546001600160a01b038381166001600160a01b0319831681179093556040519116919082907f8be0079c531659141344cd1fd0a4f28419497f9722a3daafe3b4186f6b6457e090600090a35050565b80546001019055565b8280546200013690620001ce565b90600052602060002090601f0160209004810192826200015a5760008555620001a5565b82601f106200017557805160ff1916838001178555620001a5565b82800160010185558215620001a5579182015b82811115620001a557825182559160200191906001019062000188565b50620001b3929150620001b7565b5090565b5b80821115620001b35760008155600101620001b8565b600181811c90821680620001e357607f821691505b602082108114156200020557634e487b7160e01b600052602260045260246000fd5b50919050565b612127806200021b6000396000f3fe6080604052600436106101815760003560e01c806370a08231116100d1578063b88d4fde1161008a578063e985e9c511610064578063e985e9c514610412578063eb8d24441461045b578063ee55efee14610475578063f2fde38b1461048a57600080fd5b8063b88d4fde146103bc578063c87b56dd146103dc578063dd11247e146103fc57600080fd5b806370a0823114610314578063715018a61461033457806382ac0bb8146103495780638da5cb5b1461036957806395d89b4114610387578063a22cb4651461039c57600080fd5b8063167ff46f1161013e57806342842e0e1161011857806342842e0e146102a957806354528f2d146102c95780636352211e146102de5780636817c76c146102fe57600080fd5b8063167ff46f1461025e57806323b872dd146102735780633cfa7e011461029357600080fd5b806301ffc9a71461018657806306fdde03146101bb578063081812fc146101dd578063095ea7b3146102155780631249c58b1461023757806314558fab1461023f575b600080fd5b34801561019257600080fd5b506101a66101a1366004611b5f565b6104aa565b60405190151581526020015b60405180910390f35b3480156101c757600080fd5b506101d06104fc565b6040516101b29190611e2b565b3480156101e957600080fd5b506101fd6101f8366004611b97565b61058e565b6040516001600160a01b0390911681526020016101b2565b34801561022157600080fd5b50610235610230366004611b36565b61061b565b005b610235610731565b34801561024b57600080fd5b50600a545b6040519081526020016101b2565b34801561026a57600080fd5b50610235610950565b34801561027f57600080fd5b5061023561028e3660046119ec565b610989565b34801561029f57600080fd5b50610250600b5481565b3480156102b557600080fd5b506102356102c43660046119ec565b6109ba565b3480156102d557600080fd5b50600b54610250565b3480156102ea57600080fd5b506101fd6102f9366004611b97565b6109d5565b34801561030a57600080fd5b50610250600c5481565b34801561032057600080fd5b5061025061032f3660046119a0565b610a4c565b34801561034057600080fd5b50610235610ad3565b34801561035557600080fd5b50610250610364366004611b36565b610b09565b34801561037557600080fd5b506007546001600160a01b03166101fd565b34801561039357600080fd5b506101d0610b3a565b3480156103a857600080fd5b506102356103b7366004611afc565b610b49565b3480156103c857600080fd5b506102356103d7366004611a27565b610b58565b3480156103e857600080fd5b506101d06103f7366004611b97565b610b90565b34801561040857600080fd5b50610250600a5481565b34801561041e57600080fd5b506101a661042d3660046119ba565b6001600160a01b03918216600090815260056020908152604080832093909416825291909152205460ff1690565b34801561046757600080fd5b506009546101a69060ff1681565b34801561048157600080fd5b50610235610d07565b34801561049657600080fd5b506102356104a53660046119a0565b610d3d565b60006001600160e01b031982166380ac58cd60e01b14806104db57506001600160e01b03198216635b5e139f60e01b145b806104f657506301ffc9a760e01b6001600160e01b03198316145b92915050565b60606000805461050b90611fa4565b80601f016020809104026020016040519081016040528092919081815260200182805461053790611fa4565b80156105845780601f1061055957610100808354040283529160200191610584565b820191906000526020600020905b81548152906001019060200180831161056757829003601f168201915b5050505050905090565b600061059982610de1565b6105ff5760405162461bcd60e51b815260206004820152602c60248201527f4552433732313a20617070726f76656420717565727920666f72206e6f6e657860448201526b34b9ba32b73a103a37b5b2b760a11b60648201526084015b60405180910390fd5b506000908152600460205260409020546001600160a01b031690565b6000610626826109d5565b9050806001600160a01b0316836001600160a01b031614156106945760405162461bcd60e51b815260206004820152602160248201527f4552433732313a20617070726f76616c20746f2063757272656e74206f776e656044820152603960f91b60648201526084016105f6565b336001600160a01b03821614806106b057506106b0813361042d565b6107225760405162461bcd60e51b815260206004820152603860248201527f4552433732313a20617070726f76652063616c6c6572206973206e6f74206f7760448201527f6e6572206e6f7220617070726f76656420666f7220616c6c000000000000000060648201526084016105f6565b61072c8383610dfe565b505050565b6000600b54116107795760405162461bcd60e51b81526020600482015260136024820152722737ba1032b737bab3b4103a34b1b5b2ba399760691b60448201526064016105f6565b600c543410156107bd5760405162461bcd60e51b815260206004820152600f60248201526e4e6f7420656e6f756768204554482160881b60448201526064016105f6565b60095460ff1661080f5760405162461bcd60e51b815260206004820152601860248201527f5469636b65747320617265206e6f74206f6e2073616c6521000000000000000060448201526064016105f6565b6108176118c4565b6040518060800160405280604b8152602001612067604b9139815260085461084390610e6c565b610e6c565b6020828101918252604080518082018252600d81526c1e17ba32bc3a1f1e17b9bb339f60991b8184015281850181905284519351915160009461088a949093929101611c0a565b604051602081830303815290604052905060006108a682610f86565b905060006108df6108b961083e60085490565b836040516020016108cb929190611c92565b604051602081830303815290604052610f86565b90506000816040516020016108f49190611c4d565b60405160208183030381529060405290506109173361091260085490565b6110fa565b61092961092360085490565b82611114565b610937600880546001019055565b6001600b546109469190611f61565b600b555050505050565b6007546001600160a01b0316331461097a5760405162461bcd60e51b81526004016105f690611e90565b6009805460ff19166001179055565b610993338261119f565b6109af5760405162461bcd60e51b81526004016105f690611ec5565b61072c838383611285565b61072c83838360405180602001604052806000815250610b58565b6000818152600260205260408120546001600160a01b0316806104f65760405162461bcd60e51b815260206004820152602960248201527f4552433732313a206f776e657220717565727920666f72206e6f6e657869737460448201526832b73a103a37b5b2b760b91b60648201526084016105f6565b60006001600160a01b038216610ab75760405162461bcd60e51b815260206004820152602a60248201527f4552433732313a2062616c616e636520717565727920666f7220746865207a65604482015269726f206164647265737360b01b60648201526084016105f6565b506001600160a01b031660009081526003602052604090205490565b6007546001600160a01b03163314610afd5760405162461bcd60e51b81526004016105f690611e90565b610b076000611425565b565b600d6020528160005260406000208181548110610b2557600080fd5b90600052602060002001600091509150505481565b60606001805461050b90611fa4565b610b54338383611477565b5050565b610b62338361119f565b610b7e5760405162461bcd60e51b81526004016105f690611ec5565b610b8a84848484611546565b50505050565b6060610b9b82610de1565b610c015760405162461bcd60e51b815260206004820152603160248201527f45524337323155524953746f726167653a2055524920717565727920666f72206044820152703737b732bc34b9ba32b73a103a37b5b2b760791b60648201526084016105f6565b60008281526006602052604081208054610c1a90611fa4565b80601f0160208091040260200160405190810160405280929190818152602001828054610c4690611fa4565b8015610c935780601f10610c6857610100808354040283529160200191610c93565b820191906000526020600020905b815481529060010190602001808311610c7657829003601f168201915b505050505090506000610cb160408051602081019091526000815290565b9050805160001415610cc4575092915050565b815115610cf6578082604051602001610cde929190611bdb565b60405160208183030381529060405292505050919050565b610cff84611579565b949350505050565b6007546001600160a01b03163314610d315760405162461bcd60e51b81526004016105f690611e90565b6009805460ff19169055565b6007546001600160a01b03163314610d675760405162461bcd60e51b81526004016105f690611e90565b6001600160a01b038116610dcc5760405162461bcd60e51b815260206004820152602660248201527f4f776e61626c653a206e6577206f776e657220697320746865207a65726f206160448201526564647265737360d01b60648201526084016105f6565b610dd581611425565b50565b80546001019055565b6000908152600260205260409020546001600160a01b0316151590565b600081815260046020526040902080546001600160a01b0319166001600160a01b0384169081179091558190610e33826109d5565b6001600160a01b03167f8c5be1e5ebec7d5bd14f71427d1e84f3dd0314c0f7b2291e5b200ac8c7c3b92560405160405180910390a45050565b606081610e905750506040805180820190915260018152600360fc1b602082015290565b8160005b8115610eba5780610ea481611fdf565b9150610eb39050600a83611f2e565b9150610e94565b60008167ffffffffffffffff811115610ee357634e487b7160e01b600052604160045260246000fd5b6040519080825280601f01601f191660200182016040528015610f0d576020820181803683370190505b5090505b8415610cff57610f22600183611f61565b9150610f2f600a86611ffa565b610f3a906030611f16565b60f81b818381518110610f5d57634e487b7160e01b600052603260045260246000fd5b60200101906001600160f81b031916908160001a905350610f7f600a86611f2e565b9450610f11565b805160609080610fa6575050604080516020810190915260008152919050565b60006003610fb5836002611f16565b610fbf9190611f2e565b610fca906004611f42565b90506000610fd9826020611f16565b67ffffffffffffffff811115610fff57634e487b7160e01b600052604160045260246000fd5b6040519080825280601f01601f191660200182016040528015611029576020820181803683370190505b50905060006040518060600160405280604081526020016120b2604091399050600181016020830160005b868110156110b5576003818a01810151603f601282901c8116860151600c83901c8216870151600684901c831688015192909316870151600891821b60ff94851601821b92841692909201901b91160160e01b835260049092019101611054565b5060038606600181146110cf57600281146110e0576110ec565b613d3d60f01b6001198301526110ec565b603d60f81b6000198301525b505050918152949350505050565b610b54828260405180602001604052806000815250611651565b61111d82610de1565b6111805760405162461bcd60e51b815260206004820152602e60248201527f45524337323155524953746f726167653a2055524920736574206f66206e6f6e60448201526d32bc34b9ba32b73a103a37b5b2b760911b60648201526084016105f6565b6000828152600660209081526040909120825161072c928401906118eb565b60006111aa82610de1565b61120b5760405162461bcd60e51b815260206004820152602c60248201527f4552433732313a206f70657261746f7220717565727920666f72206e6f6e657860448201526b34b9ba32b73a103a37b5b2b760a11b60648201526084016105f6565b6000611216836109d5565b9050806001600160a01b0316846001600160a01b031614806112515750836001600160a01b03166112468461058e565b6001600160a01b0316145b80610cff57506001600160a01b0380821660009081526005602090815260408083209388168352929052205460ff16610cff565b826001600160a01b0316611298826109d5565b6001600160a01b0316146113005760405162461bcd60e51b815260206004820152602960248201527f4552433732313a207472616e73666572206f6620746f6b656e2074686174206960448201526839903737ba1037bbb760b91b60648201526084016105f6565b6001600160a01b0382166113625760405162461bcd60e51b8152602060048201526024808201527f4552433732313a207472616e7366657220746f20746865207a65726f206164646044820152637265737360e01b60648201526084016105f6565b61136d600082610dfe565b6001600160a01b0383166000908152600360205260408120805460019290611396908490611f61565b90915550506001600160a01b03821660009081526003602052604081208054600192906113c4908490611f16565b909155505060008181526002602052604080822080546001600160a01b0319166001600160a01b0386811691821790925591518493918716917fddf252ad1be2c89b69c2b068fc378daa952ba7f163c4a11628f55a4df523b3ef91a4505050565b600780546001600160a01b038381166001600160a01b0319831681179093556040519116919082907f8be0079c531659141344cd1fd0a4f28419497f9722a3daafe3b4186f6b6457e090600090a35050565b816001600160a01b0316836001600160a01b031614156114d95760405162461bcd60e51b815260206004820152601960248201527f4552433732313a20617070726f766520746f2063616c6c65720000000000000060448201526064016105f6565b6001600160a01b03838116600081815260056020908152604080832094871680845294825291829020805460ff191686151590811790915591519182527f17307eab39ab6107e8899845ad3d59bd9653f200f220920489ca2b5937696c31910160405180910390a3505050565b611551848484611285565b61155d84848484611684565b610b8a5760405162461bcd60e51b81526004016105f690611e3e565b606061158482610de1565b6115e85760405162461bcd60e51b815260206004820152602f60248201527f4552433732314d657461646174613a2055524920717565727920666f72206e6f60448201526e3732bc34b9ba32b73a103a37b5b2b760891b60648201526084016105f6565b60006115ff60408051602081019091526000815290565b9050600081511161161f576040518060200160405280600081525061164a565b8061162984610e6c565b60405160200161163a929190611bdb565b6040516020818303038152906040525b9392505050565b61165b8383611791565b6116686000848484611684565b61072c5760405162461bcd60e51b81526004016105f690611e3e565b60006001600160a01b0384163b1561178657604051630a85bd0160e11b81526001600160a01b0385169063150b7a02906116c8903390899088908890600401611df8565b602060405180830381600087803b1580156116e257600080fd5b505af1925050508015611712575060408051601f3d908101601f1916820190925261170f91810190611b7b565b60015b61176c573d808015611740576040519150601f19603f3d011682016040523d82523d6000602084013e611745565b606091505b5080516117645760405162461bcd60e51b81526004016105f690611e3e565b805181602001fd5b6001600160e01b031916630a85bd0160e11b149050610cff565b506001949350505050565b6001600160a01b0382166117e75760405162461bcd60e51b815260206004820181905260248201527f4552433732313a206d696e7420746f20746865207a65726f206164647265737360448201526064016105f6565b6117f081610de1565b1561183d5760405162461bcd60e51b815260206004820152601c60248201527f4552433732313a20746f6b656e20616c7265616479206d696e7465640000000060448201526064016105f6565b6001600160a01b0382166000908152600360205260408120805460019290611866908490611f16565b909155505060008181526002602052604080822080546001600160a01b0319166001600160a01b03861690811790915590518392907fddf252ad1be2c89b69c2b068fc378daa952ba7f163c4a11628f55a4df523b3ef908290a45050565b60405180606001604052806003905b60608152602001906001900390816118d35790505090565b8280546118f790611fa4565b90600052602060002090601f016020900481019282611919576000855561195f565b82601f1061193257805160ff191683800117855561195f565b8280016001018555821561195f579182015b8281111561195f578251825591602001919060010190611944565b5061196b92915061196f565b5090565b5b8082111561196b5760008155600101611970565b80356001600160a01b038116811461199b57600080fd5b919050565b6000602082840312156119b1578081fd5b61164a82611984565b600080604083850312156119cc578081fd5b6119d583611984565b91506119e360208401611984565b90509250929050565b600080600060608486031215611a00578081fd5b611a0984611984565b9250611a1760208501611984565b9150604084013590509250925092565b60008060008060808587031215611a3c578081fd5b611a4585611984565b9350611a5360208601611984565b925060408501359150606085013567ffffffffffffffff80821115611a76578283fd5b818701915087601f830112611a89578283fd5b813581811115611a9b57611a9b61203a565b604051601f8201601f19908116603f01168101908382118183101715611ac357611ac361203a565b816040528281528a6020848701011115611adb578586fd5b82602086016020830137918201602001949094529598949750929550505050565b60008060408385031215611b0e578182fd5b611b1783611984565b915060208301358015158114611b2b578182fd5b809150509250929050565b60008060408385031215611b48578182fd5b611b5183611984565b946020939093013593505050565b600060208284031215611b70578081fd5b813561164a81612050565b600060208284031215611b8c578081fd5b815161164a81612050565b600060208284031215611ba8578081fd5b5035919050565b60008151808452611bc7816020860160208601611f78565b601f01601f19169290920160200192915050565b60008351611bed818460208801611f78565b835190830190611c01818360208801611f78565b01949350505050565b60008451611c1c818460208901611f78565b845190830190611c30818360208901611f78565b8451910190611c43818360208801611f78565b0195945050505050565b7f646174613a6170706c69636174696f6e2e6a736f6e3b206261736536342c0000815260008251611c8581601e850160208701611f78565b91909101601e0192915050565b717b20226e616d65223a20224e46546978202360701b81528251600090611cc0816012850160208801611f78565b7f222c20226465736372697074696f6e223a202241204e46542d706f7765726564601291840191820152730103a34b1b5b2ba34b7339039bcb9ba32b69116160651b60328201527f22747261697473223a205b7b202274726169745f74797065223a20224368656360468201527f6b656420496e222c202276616c7565223a202266616c736522207d2c207b202260668201527f74726169745f74797065223a2022507572636861736564222c202276616c756560868201526d0111d10113a393ab291103eae96160951b60a68201527f22696d616765223a2022646174613a696d6167652f7376672b786d6c3b62617360b482015263194d8d0b60e21b60d48201528351611dd68160d8840160208801611f78565b611dee60d8828401016222207d60e81b815260030190565b9695505050505050565b6001600160a01b0385811682528416602082015260408101839052608060608201819052600090611dee90830184611baf565b60208152600061164a6020830184611baf565b60208082526032908201527f4552433732313a207472616e7366657220746f206e6f6e20455243373231526560408201527131b2b4bb32b91034b6b83632b6b2b73a32b960711b606082015260800190565b6020808252818101527f4f776e61626c653a2063616c6c6572206973206e6f7420746865206f776e6572604082015260600190565b60208082526031908201527f4552433732313a207472616e736665722063616c6c6572206973206e6f74206f6040820152701ddb995c881b9bdc88185c1c1c9bdd9959607a1b606082015260800190565b60008219821115611f2957611f2961200e565b500190565b600082611f3d57611f3d612024565b500490565b6000816000190483118215151615611f5c57611f5c61200e565b500290565b600082821015611f7357611f7361200e565b500390565b60005b83811015611f93578181015183820152602001611f7b565b83811115610b8a5750506000910152565b600181811c90821680611fb857607f821691505b60208210811415611fd957634e487b7160e01b600052602260045260246000fd5b50919050565b6000600019821415611ff357611ff361200e565b5060010190565b60008261200957612009612024565b500690565b634e487b7160e01b600052601160045260246000fd5b634e487b7160e01b600052601260045260246000fd5b634e487b7160e01b600052604160045260246000fd5b6001600160e01b031981168114610dd557600080fdfe3c7376672076696577426f783d2230203020313030203130302220786d6c6e733d22687474703a2f2f7777772e77332e6f72672f323030302f737667223e3c7465787420793d223530223e4142434445464748494a4b4c4d4e4f505152535455565758595a6162636465666768696a6b6c6d6e6f707172737475767778797a303132333435363738392b2fa26469706673582212203667ac9a092fe9927cb60be6c33a68f3e35666ec301796da8b4a9a1e804cbb2264736f6c63430008040033",
  "linkReferences": {},
  "deployedLinkReferences": {}
}