{
  "_format": "hh-sol-artifact-1",
  "contractName": "B",
  "sourceName": "contracts/A.sol",
  "abi": [
    {
      "inputs": [
        {
          "internalType": "address",
          "name": "_A",
          "type": "address"
        }
      ],
      "stateMutability": "nonpayable",
      "type": "constructor"
    },
    {
      "inputs": [],
      "name": "getB",
      "outputs": [
        {
          "internalType": "uint256",
          "name": "",
          "type": "uint256"
        }
      ],
      "stateMutability": "view",
      "type": "function"
    },
    {
      "inputs": [
        {
          "internalType": "uint256",
          "name": "_b",
          "type": "uint256"
        }
      ],
      "name": "setB",
      "outputs": [],
      "stateMutability": "nonpayable",
      "type": "function"
    }
  ],
  "bytecode": "0x608060405234801561001057600080fd5b506040516104f63803806104f683398181016040528101906100329190610128565b80600060020160026101000a81548173ffffffffffffffffffffffffffffffffffffffff021916908373ffffffffffffffffffffffffffffffffffffffff16021790555060046000600101819055506045600060020160006101000a81548160ff021916908360ff16021790555060f5600060020160016101000a81548160ff021916908360ff16021790555050610155565b600080fd5b600073ffffffffffffffffffffffffffffffffffffffff82169050919050565b60006100f5826100ca565b9050919050565b610105816100ea565b811461011057600080fd5b50565b600081519050610122816100fc565b92915050565b60006020828403121561013e5761013d6100c5565b5b600061014c84828501610113565b91505092915050565b610392806101646000396000f3fe608060405234801561001057600080fd5b50600436106100365760003560e01c806309cdcf9b1461003b578063a1c5191514610057575b600080fd5b610055600480360381019061005091906101ef565b610075565b005b61005f6101a8565b60405161006c919061022b565b60405180910390f35b80600060010181905550600060020160029054906101000a900473ffffffffffffffffffffffffffffffffffffffff1673ffffffffffffffffffffffffffffffffffffffff166001826100c89190610275565b6040516024016100d8919061022b565b6040516020818303038152906040527fee919d50000000000000000000000000000000000000000000000000000000007bffffffffffffffffffffffffffffffffffffffffffffffffffffffff19166020820180517bffffffffffffffffffffffffffffffffffffffffffffffffffffffff83818316178352505050506040516101629190610345565b600060405180830381855af49150503d806000811461019d576040519150601f19603f3d011682016040523d82523d6000602084013e6101a2565b606091505b50505050565b60008060010154905090565b600080fd5b6000819050919050565b6101cc816101b9565b81146101d757600080fd5b50565b6000813590506101e9816101c3565b92915050565b600060208284031215610205576102046101b4565b5b6000610213848285016101da565b91505092915050565b610225816101b9565b82525050565b6000602082019050610240600083018461021c565b92915050565b7f4e487b7100000000000000000000000000000000000000000000000000000000600052601160045260246000fd5b6000610280826101b9565b915061028b836101b9565b9250827fffffffffffffffffffffffffffffffffffffffffffffffffffffffffffffffff038211156102c0576102bf610246565b5b828201905092915050565b600081519050919050565b600081905092915050565b60005b838110156102ff5780820151818401526020810190506102e4565b8381111561030e576000848401525b50505050565b600061031f826102cb565b61032981856102d6565b93506103398185602086016102e1565b80840191505092915050565b60006103518284610314565b91508190509291505056fea26469706673582212206dade5e1bdea671dd990559ffae9bea3e959257baa0de397829d9493a8eec01a64736f6c634300080a0033",
  "linkReferences": {},
  "deployedLinkReferences": {}
}